:020000040000FA
:020000000528D1
:080008006A28831606309F00F0
:100010003F30850086018312860105080339820777
:1000200014281A2825283028860106145320061083
:1000300053200D288601A201220886004820A20A2A
:100040002208133C031D1C280D280130A300860143
:100050002308860053205E20A30D03180D282828AE
:100060008601C030A3000730A200230886003D208F
:100070000310A30CA20B35280D285030A000FF3030
:10008000A10000000000A10B4128A00B3F280800A0
:100090009630A000FF30A10000000000A10B4C280A
:1000A000A00B4A280800C830A000FF30A1000000C3
:1000B0000000A10B5728A00B55280800C830A0004D
:1000C000FF30A100000000000000A10B6228A00B7F
:0800D00060280800000009008F
:00000001FF
